:020000040800F2
:1000000000400020F108000835090008B315000879
:1000100000000000000000000000000000000000E0
:10002000000000000000000000000000350900088A
:100030000000000000000000350900083509000834
:100040003509000835090008350900083509000898
:100050003509000889070008350900083509000836
:100060003509000835090008350900083509000878
:100070003509000835090008350900083509000868
:1000800035090008990800085508000835090008D6
:100090003509000835090008350900083509000848
:1000A0003509000835090008350900083509000838
:1000B0003509000835090008350900083509000828
:1000C0005FF808F180B582B000AF7860134B1B7801
:1000D0005A1CD1B2114A11701A007B68D9B2104B68
:1000E00099540E4B1B781A000D4B002199540B4B61
:1000F0001B7801330F2B05D87B680A2B02D07B6855
:10010000002B08D1054B00221A70054B0022190064
:10011000042001F045FABD4602B080BD4C04002029
:100120003C04002080B588B000AF78600023FB61FC
:100130000023BB6100237B6100233B610023FB6044
:100140008A4B5B680C221340FB61FB69042B0CD0CB
:1001500002D8002B05D03AE0082B0AD00C2B32D065
:1001600035E07B68824A1A6035E07B68804A1A6015
:1001700031E07E4B5A68F0239B031340BB617B4BFD
:100180005A68C0235B0213407B61BB699B0C02333E
:10019000BB617B69002B05D1BB69764A5A437B68FA
:1001A0001A6018E0714BDB6A0F22134001333B6188
:1001B00039696F4801F0CAFB03001A00BB695A4352
:1001C0007B681A6007E07B686B4A1A6003E07B6813
:1001D000674A1A60C046654B5B68F0221340FB61BA
:1001E000FB691B09FB61654AFB69D3181B78DBB20D
:1001F000FB607B681A68FB68DA407B685A605B4B7F
:100200005A68E023DB001340FB61FB691B0AFB61BA
:100210005A4AFB69D3181B78DBB2FB607B685A68CB
:10022000FB68DA407B689A60504B1A6B80235B0056
:10023000134003D17B68524ADA6010E04B4B5A6896
:100240008023DB01134005D17B689B685A087B68DB
:10025000DA6004E07B689B689A087B68DA60434B4D
:100260001B6B4022134003D17B68464A1A6103E0AE
:100270007B68802212021A613C4B1B6B10221340D8
:1002800003D17B683A4A5A6103E07B681A687B684D
:100290005A61364B1B6B0322134004D17B689A686A
:1002A0007B689A611EE0314B1B6B03221340012BCC
:1002B00004D17B681A687B689A6113E02B4B1B6B37
:1002C00003221340022B04D17B68802212029A6120
:1002D00008E0264B1B6B03221340032B02D17B68E3
:1002E000234A9A61214B1A6BC0239B02134004D10D
:1002F0007B689A687B68DA6127E01C4B1A6BC02325
:100300009B021A4080235B029A4204D17B681A68E0
:100310007B68DA6119E0154B1A6BC0239B021A4007
:1003200080239B029A4204D17B6880221202DA6108
:100330000BE00E4B1A6BC0239B021A40C0239B029A
:100340009A4202D17B680A4ADA61084B1B6B802211
:10035000134003D17B68084A1A6203E07B681A687D
:100360007B681A62C046BD4608B080BD00100240DE
:1003700000127A0000093D00006CDC020000002041
:10038000809FD5001280000080B582B000AF0200CF
:10039000FB1D1A70064BFA1D127811001F220A402D
:1003A000012191400A001A60C046BD4602B080BDDE
:1003B00000E100E0B0B582B000AF02003960FB1D83
:1003C0001A70FB1D1B787F2B32D92F4CFB1D1B781D
:1003D0001A000F231340083B99082B4AFB1D1B787A
:1003E00018000F230340083B9B0806339B00D318DB
:1003F00004331B68FA1D1278100003220240D20059
:10040000FF2090400200D2431A403B689B01FF202E
:100410001840FB1D1B781D0003232B40DB00984078
:1004200003001A438B1D9B00E31804331A6027E076
:10043000164CFB1D1B785BB29B081449FA1D127801
:1004400052B29208C03292005258F91D0978080041
:1004500003210140C900FF2088400100C943114029
:100460003A689201FF201040FA1D1278150003220D
:100470002A40D200904002000A43C0339B001A5128
:10048000C046BD4602B0B0BD00ED00E000E100E0B6
:1004900080B58CB000AF78600823FB181800FFF718
:1004A00041FE0823FB185B680949180001F04EFA69
:1004B00003001A007B685343FB6202E0FB6A013BC6
:1004C000FB62FB6A002BF9D1C046BD460CB080BD73
:1004D0001027000080B500AF074B074A5269E021A2
:1004E00009030A435A61054B044A126840210A4332
:1004F0001A60C046BD4680BD00100240000800489A
:1005000080B500AF204B204AD26910210A43DA613E
:100510001E4B17221A851D4B1D4ADA62032111203A
:10052000FFF748FF1120FFF72FFF174B164AD2693C
:1005300020210A43DA61174B17221A85154B0A222C
:10054000DA6202211220FFF735FF1220FFF71CFFAD
:10055000114B114A92681204120C9A600F4B0F4A09
:10056000126801210A431A600C4B0C4A926801215F
:100570000A439A6001210520FFF71CFF0520FFF7C1
:1005800003FFC046BD4680BD001002400010004081
:1005900050C300000014004000000140000401406E
:1005A00080B5EAB000AFFFF795FFFFF7A9FF01F0B4
:1005B00045F9A023FF33FB1801221A706C4A6C4BDB
:1005C0009B899BB201210B439BB29381694A694B82
:1005D0009B8A9BB208210B439BB29382644A644B73
:1005E0001B889BB201210B439BB213800023D222B4
:1005F0005200BA181360FA235B001800FFF748FF97
:100600005D4B1B889BB21D21180001F09FF9030070
:100610009BB2D0225200BA181360962000F098FFC7
:10062000962000F095FF96235B001800FFF730FF3F
:10063000514B1B889BB21D21180001F087F9030064
:100640009BB2CC225200BA1813604C4B180000F039
:10065000A5FCD0235B00FB181A68CC235B00FB18B9
:100660001B689A422ED0D0235B00FB181A68CC235B
:100670005B00FB181B68D31A032B0ADDCC235B003D
:10068000FB181A68D0235B00FB181B68D31A032BD6
:1006900018DC3B4BD42252009446BC446344D22223
:1006A0005200BA1812689200CC21490079180968E2
:1006B000D150D2235B00FB181B680133D2225200B9
:1006C000BA181360C820FFF7E3FE2B4B1B889BB2C0
:1006D0001D21180001F03AF903009BB2CA22520012
:1006E000BA181360D0235B00FB181A68CC235B0098
:1006F000FB181B68D31A012B30DDCC235B00FB18E1
:100700001A68CA235B00FB181B689A4226D1D223C1
:100710005B00FB181A683B001100180000F098FC01
:100720000300C8225200BA181360C8235B00FB18EC
:100730001B68144A934205D10023D2225200BA18F2
:1007400013600BE0C8235B00FB181B68180000F067
:10075000FFFE0023D2225200BA181360CC235B00A4
:10076000FB181B68D0225200BA18136058E7C04625
:10077000001400400008004850040020581B0008E6
:1007800058FEFFFF18FCFFFF80B500AF2D4A2D4B30
:100790005B6901210B4053614BD02B4B1B78DBB2C3
:1007A000002B17D1294A294B1B889BB201210B43EF
:1007B0009BB21380244B01221A70224B214A92686B
:1007C00001218A439A601F4B1E4AD26801210A43C5
:1007D000DA602EE01D4A1D4B1B889BB201218B4322
:1007E0009BB21380194B5B6A9AB2194B1A80174B54
:1007F00000225A62144B00221A70124B114AD2681E
:1008000001218A43DA600F4B0E4A926801210A43A4
:100810009A600E4A0D4B9B899BB201210B439BB200
:1008200093810A4A094B1B889BB201210B439BB25F
:100830001380044B034A526901210A435A61C0469E
:10084000BD4680BD000401404E0400200010004061
:100850005004002080B500AF0D4A0D4B1B8A9BB29F
:1008600001218B439BB213820A4A0A4B9B8A9BB29B
:1008700008218B439BB29382054A054B9B899BB20F
:1008800001218B439BB29381C046BD4680BDC046CB
:10089000001400400008004880B500AF114A114B19
:1008A0001B8A9BB201218B439BB213820E4A0E4BD3
:1008B0009B8A9BB208210B439BB293820B4A0B4B42
:1008C0009B899BB201210B439BB29381074A074B43
:1008D0001B889BB201210B439BB21380C046BD46CF
:1008E00080BDC046001000400008004800140040D1
:1008F000002103E00A4B5B584350043109480A4B7E
:1009000042189A42F6D3094A02E0002313600432E7
:10091000074B9A42F9D300F057FEFFF741FE7047AC
:10092000541C0008000000203C0400203C0400206F
:1009300054040020FEE7000080B582B000AF020042
:10094000FB1D1A70FB1D1B781800FFF7BBFBC04690
:10095000BD4602B080BDC04680B582B000AF7860B1
:100960000A00FB1C1A707B68FA1C12781A700123AB
:100970001800BD4602B080BD80B584B000AF78607D
:1009800039600023FB600AE07B685A1C7A603A6891
:10099000511C396012781A70FB680133FB603B68A8
:1009A0001B78002BF0D1FB681800BD4604B080BD59
:1009B00090B587B000AFF8607A603B600B23FB18FE
:1009C0000A1C1A7000237B617B68013B7B603B68DB
:1009D000092B26D93B680A21180000F0B7FF030055
:1009E0001C007A680B23FB181978F8682300FFF7BE
:1009F000DFFF03007B617B69FA68D318FB6013E0BB
:100A00000B23FB181A78FB6811001800FFF7A4FFEE
:100A1000FB680133FB607B6901337B617B68013BD1
:100A20007B607B68002BEBDC3B680A21180001F03F
:100A300013F80B00DBB23033DAB2FB681100180098
:100A4000FFF78AFF02007B699B187B617B691800B6
:100A5000BD4607B090BDC04690B587B000AFF86006
:100A60007A603B600B23FB180A1C1A7000237B6121
:100A70003B68002B03DA3B685B423B6101E03B686B
:100A80003B617B68013B7B603B69092B2BD93B6851
:100A9000002B12DA3B690A21180000F057FF03000F
:100AA0005B421C007A680B23FB181978F868230056
:100AB000FFF7D2FF03007B6110E03B690A211800B9
:100AC00000F044FF03001C007A680B23FB18197820
:100AD000F8682300FFF7C0FF03007B617B69FA68B9
:100AE000D318FB6029E03B68002B14DA7B68013BDC
:100AF0007B6010E00B23FB181A78FB6811001800CC
:100B0000FFF72AFFFB680133FB607B6901337B61E0
:100B10007B68013B7B607B68002BEBDC3B68002B38
:100B20000BDAFB682D211800FFF716FF02007B6926
:100B30009B187B61FB680133FB603B690A2118004D
:100B400000F08AFF0B00DBB23033DAB2FB68110031
:100B50001800FFF701FF02007B699B187B617B692E
:100B60001800BD4607B090BDB0B588B002AFF860C0
:100B700008007A6019000B23FB18021C1A700A2364
:100B8000FB180A1C1A7000237B617B68013B7B60A9
:100B9000BB6A1B0928D0BB6A1B090A22BA18157840
:100BA0007C680B22BA181178F86800932B00220099
:100BB000FFF7DAFF02007B699B187B617B69FA68AB
:100BC000D318FB6013E00B23FB181A78FB681100A5
:100BD0001800FFF7C1FEFB680133FB607B6901333E
:100BE0007B617B68013B7B607B68002BEBDCBB6A35
:100BF0000F221340092B0CD8BB6ADBB20F22134023
:100C0000DBB23033DAB2FB6811001800FFF7A4FE44
:100C10001DE00A23FB181B78002B0CD0BB6ADBB24B
:100C20000F221340DBB23733DAB2FB681100180031
:100C3000FFF792FE0BE0BB6ADBB20F221340DBB280
:100C40005733DAB2FB6811001800FFF785FE7B69A5
:100C500001337B617B691800BD4606B0B0BDC0465C
:100C600090B58BB002AFF860B9607A603B6000234A
:100C7000BB6100237B61FB68002B00D1E2E0FB68D5
:100C800000221A70DEE07B681B78252B0BD0FB68F6
:100C90005A1CFA607A68511C796012781A707B6964
:100CA00001337B61CEE07B6801331B78252B0BD1B0
:100CB000FB685A1CFA6025221A707B6802337B603D
:100CC0007B6901337B61BDE01F23FB1820221A7072
:100CD0001E23FB1800221A707B6801337B607B683F
:100CE0001B78302B1AD11F23FB1830221A707B6817
:100CF00001337B6012E01E23FB181B781A1C920044
:100D0000D318DB18DAB27B681B78D318DAB21E234B
:100D1000FB18303A1A707B6801337B607B681B7864
:100D20002F2B03D97B681B78392BE4D91E23FB18A2
:100D30001A787B69D3181A00BB689A4207D9BB6836
:100D4000D9B27B69DAB21E23FB188A1A1A707B6843
:100D50001B78583B202B67D89A004A4BD3181B6846
:100D60009F461E23FB181C783B681A1D3A601A68C0
:100D70001F23FB181978F86813002200FFF76CFE98
:100D80000300BB6153E01E23FB181C783B681A1D4F
:100D90003A601A681F23FB181978F86813002200BC
:100DA000FFF706FE0300BB6141E01E23FB181C7821
:100DB0003B681A1D3A601B681F22BA181178F86840
:100DC000009300232200FFF7CFFE0300BB612EE05B
:100DD0001E23FB181C783B681A1D3A601B681F22F3
:100DE000BA181178F868009301232200FFF7BCFEBF
:100DF0000300BB611BE03B681A1D3A601A68FB6880
:100E000011001800FFF7B8FD0300BB610FE03B685D
:100E10001A1D3A601B68DAB2FB6811001800FFF770
:100E20009BFD0300BB6102E001235B4225E07B6880
:100E300001337B60BB69FA68D318FB607A69BB69D0
:100E4000D3187B617B681B78002B04D07A69BB6860
:100E50009A4200D217E77A69BB689A4203D2FB68CC
:100E600000221A7008E0FB68013BFB60FB6800226F
:100E70001A707B69013B7B617B691800BD4609B034
:100E800090BDC046601B000880B584B000AFF8601C
:100E9000B9607A607B68BA68F8686421FFF7E0FEA1
:100EA00003001800BD4604B080BDC04690B5A7B091
:100EB00000AFF860B9607A601023FB18134A13CAB8
:100EC00013C313CA13C313CA13C37A68B96834238C
:100ED000FB181800FFF7D8FF0300632B09DD0C4B4C
:100EE0001B68DA681023FB181100180000F08AF85C
:100EF000FEE7FA683423FB181100180000F082F8AE
:100F000003001800BD4627B090BDC046E41B000892
:100F10003804002080B582B000AF78603960064B9D
:100F20001B689B683A6879681800FFF7BFFF0300E9
:100F30001800BD4602B080BD380400200FB480B553
:100F400082B000AF1423FB183B603A683B69110084
:100F50001800FFF7DFFF03007B607B681800BD46C9
:100F600002B080BC08BC04B01847C0460EB480B5BF
:100F700085B000AF78602023FB18BB60BA68F969C0
:100F80007B681800FFF780FF0300FB60FB68180018
:100F9000BD4605B080BC08BC03B0184780B582B020
:100FA00000AF7860064B1B689A687B6811001800D8
:100FB00000F028F803001800BD4602B080BDC0460E
:100FC0003804002080B582B000AF786039600C4BE7
:100FD0001B689A683B689A4205D0094B1B68DA681F
:100FE0003B689A4206D17B68DBB21800FFF7A4FC8D
:100FF0007B6801E001235B421800BD4602B080BD62
:101000003804002080B584B000AF786039600023D8
:10101000FB6013E07B681B781A003B681900100026
:10102000FFF7D0FF0300013302D101235B420AE046
:10103000FB680133FB607B6801337B607B681B7856
:10104000002BE7D1FB681800BD4604B080BDC04648
:1010500080B5D24FBD4400AF786039600023D04ADC
:10106000BA1813600123CF4ABA1813600223CE4A7C
:10107000BA1813600323CD4ABA181360C84BFB1883
:101080001B68CB4ABA1813600123CA4ABA18136006
:101090007B681B68C84ABA181360C84BFC2252010F
:1010A0009446BC446344C24ABA1812681A60C34BDF
:1010B000FC2252019446BC446344BF4ABA181268E9
:1010C0005A600123BE4ABA18136057E1B84BFB18A7
:1010D0001A68B34BFB181B689A4213D1B84BFB1824
:1010E0001B689B007A68D3181A68B34BFB181B68FF
:1010F0009A4200DC31E1AD4BFB181B68AC4ABA18D0
:1011000013602AE1AA4BFB181A68A64BFB181B6850
:101110009A4213D1AA4BFB181B689B007A68D3181C
:101120001A68A54BFB181B689A4200DB15E19E4B21
:10113000FB181B689E4ABA1813600EE19C4BFB1803
:101140001A68994BFB181B689A426ED19C4BFB188E
:101150001B689B007A68D3181A68974BFB181B68AA
:101160009A422AD18E4BFB181B68914ABA18136019
:10117000924BFC2252019446BC4463448D4ABA18F7
:101180001268D2008A4979180968D1508B4BFC2229
:101190005201BA18D218874BFB181B68DB00D31812
:1011A0000433854ABA1812681A60824BFB181B6810
:1011B0000133804ABA181360CFE0814BFB181B68DB
:1011C0009B007A68D3181A687B4BFB181B689A42FD
:1011D00000DCC2E0794BFC2252019446BC446344DB
:1011E000744ABA181268D2006D4979180968D1504A
:1011F000724BFC225201BA18D2186E4BFB181B68B6
:10120000DB00D31804336C4ABA1812681A60674BB3
:10121000FB181B68664ABA181360664BFB181B68FC
:101220000133644ABA18136097E0614BFB181A68DF
:101230005E4BFB181B689A4200D08EE0604BFB1897
:101240001B689B007A68D3181A685B4BFB181B68F5
:101250009A423BD1534BFB181B68554ABA1813608E
:10126000564BFC2252019446BC446344514ABA187E
:101270001268D2004E4979180968D1504F4BFC22B0
:101280005201BA18D2184B4BFB181B68DB00D3185D
:101290000433494ABA1812681A60484BFC225201BA
:1012A000BA18D218434BFB181B68DB00D318043361
:1012B0001A68444B11001800FFF740FE3D4BFB1825
:1012C0001B6801333B4ABA18136046E03C4BFB18DD
:1012D0001B689B007A68D3181A68374BFB181B6889
:1012E0009A423ADA354BFC2252019446BC4463449C
:1012F000304ABA181268D2002A4979180968D150C0
:101300002E4BFC225201BA18D2182A4BFB181B682C
:10131000DB00D3180433284ABA1812681A60274B26
:10132000FC225201BA18D218224BFB181B68DB00B2
:10133000D31804331A68234B11001800FFF7FEFD81
:10134000194BFB181B681A4ABA181360194BFB1883
:101350001B680133174ABA181360194BFB181B6836
:101360009B007A68D3181B68134ABA181360144B91
:10137000FB181B680133124ABA181360104BFB1894
:101380001A683B689A4200DAA0E60F4B0F4ABA1877
:10139000136000230E4ABA18136048E080E0FFFF94
:1013A0005C1F0000581F0000541F0000501F000069
:1013B0007C1F0000781F0000741F00008CE0FFFFFE
:1013C000701F0000081C000818FCFFFF6C1F0000C5
:1013D000681F0000554BFB181B68012213401FD0EB
:1013E000534BFC225201BA18D218504BFB181B6801
:1013F000DB00D31804331A684E4BFB181B689A4263
:101400000EDD4B4BFC225201BA18D218474BFB1889
:101410001B68DB00D31804331B68464ABA181360F4
:10142000424BFB181B680133404ABA1813603F4B0C
:10143000FB181A68404BFB181B689A42CADB3F4BEB
:101440001800FFF77BFD3B4BFB181A683C4B110063
:101450001800FFF773FD00233A4ABA1813600323FC
:10146000394ABA1813600023FB225201BA181360DC
:1014700042E0FB235B01FB181B680122134032D0C2
:101480002B4BFC225201BA18D218FB235B01FB182C
:101490001B68DB00D31804331A68264BFB18196845
:1014A000294BFB181B68CB1A9A4215DA204BFC22F9
:1014B0005201BA18D218FB235B01FB181B68DB0032
:1014C000D31804331A681B4BFB1819681E4BFB1802
:1014D0001B68CB189A4206DB1A4BFB181B680133BA
:1014E000184ABA181360FB235B01FB181B68013311
:1014F000FB225201BA181360FB235B01FB181A6828
:101500000D4BFB181B689A42B3DB0E4BFB181A6895
:101510000E4B11001800FFF711FD064BFB181B685E
:101520001800BD46FC235B019D4480BD681F000080
:101530008CE0FFFF6C1F0000781F0000181C0008E3
:10154000201C0008641F00004C1F0000241C000821
:1015500080B59CB000AF78607A680F4B110018001E
:10156000FFF7ECFC0C23FB1800221A600433602206
:101570000021180000F076FA7A6808490C23FB185D
:101580001800FFF7F3FC0C23FB18180000F0A2F979
:10159000C046BD461CB080BD341C0008501C00086D
:1015A000ABBE01E000207047002A00D0106001208F
:1015B000704706980188034A914202D10430069090
:1015C0007047FEE7ABBE000080B500AF1B4B1B4A67
:1015D000126801210A431A60184B184A52681849C8
:1015E0000A405A60154B154A126816490A401A609B
:1015F000124B124A126814490A401A600F4B0F4AE4
:10160000526812490A405A600C4B0C4AD26A0F21A8
:101610008A43DA62094B094A126B0D490A401A6380
:10162000064B064A526B01218A435A63034B002240
:101630009A6000F00FF8C046BD4680BD0010024021
:101640000CB8FFF8FFFFF6FEFFFFFBFFFFFFC0FF38
:10165000ACFEFFFF80B582B000AF00237B600023AB
:101660003B60314B304A1268802149020A431A60BC
:101670002D4B1A6880239B0213403B607B6801332B
:101680007B603B68002B04D17A68A023DB009A4280
:10169000EED1254B1A6880239B02134002D0012310
:1016A0003B6001E000233B603B68012B38D11F4BBE
:1016B00011221A601C4B1C4A52685A601A4B1A4A73
:1016C00052685A60184B184A526819490A405A60C1
:1016D000154B154A5268882149030A435A60124B38
:1016E000114A1268802149040A431A60C0460E4B11
:1016F0001A6880239B041340F9D00B4B0A4A5268A6
:1017000003218A435A60084B074A526802210A4360
:101710005A60C046044B5B680C221340082BF9D179
:10172000C046BD4602B080BD00100240002002400D
:10173000FF7FC0FF80B582B000AF0200FB1D1A70B2
:10174000064BFA1D127811001F220A400121914018
:101750000A001A60C046BD4602B080BD00E100E04C
:10176000B0B582B000AF02003960FB1D1A70FB1DDE
:101770001B787F2B32D92F4CFB1D1B781A000F23AF
:101780001340083B99082B4AFB1D1B7818000F23B8
:101790000340083B9B0806339B00D31804331B68A7
:1017A000FA1D1278100003220240D200FF20904060
:1017B0000200D2431A403B689B01FF201840FB1DEA
:1017C0001B781D0003232B40DB00984003001A43C5
:1017D0008B1D9B00E31804331A6027E0164CFB1D99
:1017E0001B785BB29B081449FA1D127852B292081A
:1017F000C03292005258F91D0978080003210140B7
:10180000C900FF2088400100C94311403A68920195
:10181000FF201040FA1D1278150003222A40D20042
:10182000904002000A43C0339B001A51C046BD4697
:1018300002B0B0BD00ED00E000E100E080B500AF17
:101840009023DB059022D20512681D490A40A02191
:1018500089030A431A609023DB059022D205526A5D
:1018600018490A40882149000A435A62164B164A11
:1018700092698021C9010A439A61144B144A9A81E2
:10188000124B0D221A60C046104BDB6940221340F8
:10189000FAD00E4B0D4A126A40210A431A620B4BD2
:1018A0000A4A126820210A431A6000211B20FFF710
:1018B00057FF1B20FFF73EFFC046BD4680BDC04618
:1018C000FFFFC3FF0FF0FFFF001002400038014090
:1018D0004103000080B584B000AF78607B681800D9
:1018E00000F006F902000B23FB181A700023FB60BE
:1018F00009E0FB687A68D3181B78180000F00EF82E
:10190000FB680133FB600B23FB181A78FB689A42D3
:10191000EFDCC046BD4604B080BDC04680B582B095
:1019200000AF0200FB1D1A70074AFB1D1B789BB21B
:101930001385C046044BDB6940221340FAD0C046F1
:10194000BD4602B080BDC0460038014000224308B9
:101950008B4274D303098B425FD3030A8B4244D377
:10196000030B8B4228D3030C8B420DD3FF220902B9
:1019700012BA030C8B4202D31212090265D0030B78
:101980008B4219D300E0090AC30B8B4201D3CB036E
:10199000C01A5241830B8B4201D38B03C01A5241B0
:1019A000430B8B4201D34B03C01A5241030B8B42B2
:1019B00001D30B03C01A5241C30A8B4201D3CB029D
:1019C000C01A5241830A8B4201D38B02C01A524182
:1019D000430A8B4201D34B02C01A5241030A8B4285
:1019E00001D30B02C01A5241CDD2C3098B4201D39D
:1019F000CB01C01A524183098B4201D38B01C01A1B
:101A0000524143098B4201D34B01C01A5241030991
:101A10008B4201D30B01C01A5241C3088B4201D340
:101A2000CB00C01A524183088B4201D38B00C01AED
:101A3000524143088B4201D34B00C01A5241411A14
:101A400000D20146524110467047FFE701B5002021
:101A500000F006F802BDC0460029F7D076E77047CF
:101A60007047C04670B583073FD0541E002A3BD054
:101A7000CEB20300032503E0621E002C34D0140014
:101A800001335A1E16702B42F6D1032C24D9FF25A0
:101A90000D402A0215432A0415430F2C11D92600A4
:101AA000103E3609013636011A009B191560556043
:101AB0009560D56010329342F8D10F221440032C68
:101AC0000AD9261FB6080136B6001A009B1920C293
:101AD0009342FCD103221440002C05D0C9B21C193A
:101AE000197001339C42FBD170BD14000300CCE798
:101AF00010B5830727D00378002B26D003000321DD
:101B000002E01A78002A1CD001330B42F9D119687F
:101B10000F4A104C8A188A4322420FD104331968A5
:101B20000B4A8A188A43224208D104331968084AAA
:101B30008A188A432242F1D000E001331A78002A41
:101B4000FBD1181A10BD0300E1E70020FAE7C046F8
:101B5000FFFEFEFE80808080737472696E670000F5
:101B6000D00D0008280E0008280E0008280E0008D6
:101B7000280E0008280E0008280E0008280E00086D
:101B8000280E0008280E0008280E00080E0E000877
:101B9000620D0008280E0008280E0008280E000814
:101BA000280E0008620D0008280E0008280E000804
:101BB000280E0008280E0008280E0008280E00082D
:101BC000280E0008280E0008280E0008F60D000850
:101BD000280E0008860D0008280E0008280E0008B0
:101BE000AA0D0008737464696F2E633A20696E63EE
:101BF0007265617365204D41585F535452494E4799
:101C00005F53495A450A0D0044697374616E6365F8
:101C1000203D2025640A00004D41583A2000000074
:101C200025640A00537472696B65733A2025640A4F
:101C3000000000004E756D626572206F662072654F
:101C4000616C20737472696B65733A2025640A00B5
:041C500025753B00BB
:101C5400000000000102030401020304060708094E
:101C6400000000000000000001000000000000006F
:101C74000000000000000000000000000000000060
:101C84000000000000000000000000000000000050
:101C94000000000000000000000000000000000040
:101CA4000000000000000000000000000000000030
:0C20840000000000000000001000002020
:0400000508000000EF
:00000001FF
